S00D00004C61625F322E7372656377
S11300000C9444000C944E000C944E000C944E003E
S11300100C944E000C944E000C944E000C944E0024
S11300200C944E000C944E000C944E000C944E0014
S11300300C944E000C944E000C944E000C944E0004
S11300400C944E000C944E000C944E000C944E00F4
S11300500C944E000C944E000C944E000C944E00E4
S11300600C944E000C944E0059005C005F0062003A
S1130070650068006B006E007100740077007A0000
S11300807D0080008300860011241FBECFEFD8E0DE
S1130090DEBFCDBF0E948B000C94AF000C94000017
S11300A090E080319105A8F5FC01EC5CFF4F0C94C5
S11300B0A9008EE78BB9089580E38BB908958DE686
S11300C08BB9089589E78BB9089583E38BB90895B3
S11300D08BE58BB908958FE58BB9089580E78BB9CB
S11300E008958FE78BB9089583E78BB9089587E75F
S11300F08BB908958FE18BB908958EE48BB9089577
S11301008DE38BB908958FE48BB9089587E48BB997
S113011008951BB808958FE78AB981E084B9D0E0C7
S1130120C0E0199905C0D11104C0CF5FD1E001C06E
S1130130D0E0CF3021F485B1816085B903C085B1A9
S11301408E7F85B9C03108F0C0E08C2F0E9450002A
S1130150E8CFEE0FFF1F0590F491E02D0994F89479
S1050160FFCFCB
S9030000FC
