S00C00004C6162342E73726563D5
S11300000C9444000C9461000C9461000C94610005
S11300100C9461000C9461000C9461000C946100D8
S11300200C9461000C9461000C9461000C940A011E
S11300300C9461000C9461000C9461000C946100B8
S11300400C9461000C9461000C9461000C946100A8
S11300500C9461000C9461000C9461000C94610098
S11300600C9461000C9461006C006F0072007500C8
S113007078007B007E008100840087008A008D0068
S1130080900093009600990011241FBECFEFD8E092
S1130090DEBFCDBF11E0A0E0B1E0EEE1F3E002C0CD
S11300A005900D92A032B107D9F721E0A0E2B1E0AA
S11300B001C01D92A333B207E1F70E9472010C94B0
S11300C08D010C94000090E080319105A8F5FC01AD
S11300D0EC5CFF4F0C9487018AEF8BB9089580EA9A
S11300E08BB9089589ED8BB9089581EF8BB9089583
S11300F083EA8BB9089583E78BB908958BE78BB9AD
S1130100089580EE8BB908958BEF8BB9089583EE33
S11301108BB908958BEE8BB908958BE38BB9089551
S11301208AE58BB9089589EB8BB908958BE58BB972
S113013008958BE48BB908951BB80895409120016C
S1130140E42FF0E0EC5DFE4F808380E020E09FEF41
S1130150883050F4E82FF0E0EC5DFE4F30819323BB
S11301603081232B8F5FF4CF80912C0180958923DC
S113017080932E0180912C01322F3095832380931C
S11301802D0180912C012823922B90932C0181E046
S1130190840F80932001883010F01092200108957C
S11301A083B1807390E095958795959587959595FE
S11301B08795959587950E949E0080912C01809348
S11301C03201E091310180913201E82BF0E0EE0F31
S11301D0FF1FE050FF4F208131812F3F310549F44B
S11301E080912F01909130019093300180932F01E1
S11301F00AC080912F0190913001820F931F909338
S1130200300180932F0180913201880F880F8093F1
S1130210310108951F920F920FB60F9211242F935C
S11302203F934F935F936F937F938F939F93AF937A
S1130230BF93EF93FF930E94D0008091220190918D
S1130240230181359105A0F180912101882389F052
S113025080912F01909130018F700E94630095B1BD
S113026082E0892785B985B18B7F85B910922101F8
S11302701AC080912F0190913001807F9927959524
S113028087959595879595958795959587950E94DA
S1130290630095B184E0892785B985B18D7F85B9DF
S11302A081E080932101109223011092220109C060
S11302B080912201909123010196909323018093D0
S11302C02201FF91EF91BF91AF919F918F917F9107
S11302D06F915F914F913F912F910F900FBE0F90AF
S11302E01F90189586E084B98BEF8AB982E085B9AE
S11302F01092800099E09093810080936F0088ECC5
S113030090E090938900809388007894FFCFEE0F5B
S1110310FF1F0590F491E02D0994F894FFCF9F
S113031E00000100FFFFFF00FFFF0000FF000100CF
S113032E0100FF000000FFFFFF00FFFF01000000BF
S9030000FC
