:100000000C9434000C9451000C9451000C94510049
:100010000C9451000C9451000C9451000C948F00DE
:100020000C9451000C9451000C9451000C948500D8
:100030000C9451000C9451000C9453000C945100FA
:100040000C9451000C9451000C9451000C945100EC
:100050000C9451000C9451000C9451000C945100DC
:100060000C9451000C94510011241FBECFEFD8E026
:10007000DEBFCDBF11E0A0E0B1E0ECE8F1E002C0EE
:1000800005900D92A230B107D9F721E0A2E0B1E0CE
:1000900001C01D92A430B207E1F70E94A1000C94A8
:1000A000C4000C9400001F920F920FB60F921124FF
:1000B0002F938F939F938091020190910301883E2B
:1000C000934090F080910001882331F080910001ED
:1000D00081508093000103C082E0809370001092F1
:1000E00003011092020109C0809102019091030165
:1000F000019690930301809302019F918F912F911C
:100100000F900FBE0F901F9018951F920F920FB671
:100110000F9211240F900FBE0F901F9018951F92F1
:100120000F920FB60F9211248F939F9395B184E095
:10013000892785B99F918F910F900FBE0F901F90C7
:1001400018958FEF8AB984E084B982E084BD93E08A
:1001500095BD80936E009AEF97BD8093800099E0E3
:100160009093810080936F0020ED37E030938900F9
:10017000209388008093B00087E08093B10089E1EC
:0C0180008093B3007894FFCFF894FFCF79
:02018C000A0067
:00000001FF
