:100000000C9444000C9461000C9461000C94610009
:100010000C9461000C9461000C9461000C94F0014C
:100020000C9461000C9461000C9461000C943301F9
:100030000C9461000C9461000C94FE000C9461001F
:100040000C9461000C9461000C9461000C946100AC
:100050000C9461000C9461000C9461000C9461009C
:100060000C9461000C9461006C006F0072007500CC
:1000700078007B007E008100840087008A008D006C
:10008000900093009600990011241FBECFEFD8E096
:10009000DEBFCDBF11E0A0E0B1E0EEE5F4E002C0CC
:1000A00005900D92A632B107D9F721E0A6E2B1E0A2
:1000B00001C01D92AC33B207E1F70E9402020C941A
:1000C0002D020C94000090E080319105A8F5FC0110
:1000D000EC5CFF4F0C9427028AEF8BB9089580E601
:1000E0008BB9089589ED8BB9089581EF8BB9089587
:1000F00083E68BB9089583EB8BB908958BEB8BB9AD
:10010000089580EE8BB908958BEF8BB9089583EE37
:100110008BB908958BEE8BB908958BE38BB9089555
:100120008AE98BB9089589E78BB908958BE98BB972
:1001300008958BE88BB908951BB808954091260166
:10014000E42FF0E0E85DFE4F808380E020E09FEF49
:10015000883050F4E82FF0E0E85DFE4F30819323C3
:100160003081232B8F5FF4CF8091300180958923DC
:100170008093320180913001322F30958323809318
:100180003101809130012823922B9093300181E03E
:10019000840F80932601883010F010922601089574
:1001A00080913001837080933B01E0913A0180910E
:1001B0003B01E82BF0E0EE0FFF1FEA5FFE4F2081CE
:1001C00031812F3F310549F48091380190913901F7
:1001D00090933901809338010AC080913801909141
:1001E0003901820F931F90933901809338018091D8
:1001F0003B01880F880F80933A0108951F920F9258
:100200000FB60F9211242F938F939F9380913401F7
:1002100090913501883E9340A8F080910501882394
:1002200031F08091050181508093050106C082E084
:100230008093700088B1836088B910923501109264
:10024000340109C080913401909135010196909359
:100250003501809334019F918F912F910F900FBEA4
:100260000F901F9018951F920F920FB60F921124A6
:100270002F933F934F935F936F937F938F939F93AE
:10028000AF93BF93EF93FF9380913301882301F1E4
:10029000809105019DEC899F812D1124869586957D
:1002A0008695899F912D1124969596959695990FEF
:1002B000292F220F220F920F891B0E94630085B104
:1002C000886085B985B18F7E85B9109233011AC0D7
:1002D000809105019DEC899F912D1124969596950D
:1002E0009695990F292F220F220F920F891B0E949A
:1002F000630085B1806185B985B1877F85B981E06B
:100300008093330183B187700E949E0080913101F8
:1003100082FF08C08AE0809305011092700088B1C6
:100320008C7F88B90E94D00080913601909137016E
:10033000039620913801309139018217930774F4A4
:10034000809127018F5F80932701809138019091E0
:100350003901909337018093360119C0809136019D
:100360009091370103972091380130913901281776
:1003700039076CF480912701815080932701809187
:100380003801909139019093370180933601809123
:10039000270185301CF01092270107C080912701AA
:1003A00088231CF484E080932701E09127010E2E1E
:1003B000000CFF0BE050FF4F80818093B300FF9152
:1003C000EF91BF91AF919F918F917F916F915F91CD
:1003D0004F913F912F910F900FBE0F901F90189546
:1003E0001F920F920FB60F9211248F939F9395B186
:1003F00080E2892785B99F918F910F900FBE0F9052
:100400001F9018958FEF8AB988E384B993E097B964
:1004100082E084BD95BD80936E009AEF97BD809376
:10042000800099E09093810080936F0020ED37E089
:1004300030938900209388008093B00084E08093FB
:10044000B100809100018093B3007894FFCFEE0F4C
:0E045000FF1F0590F491E02D0994F894FFCF62
:10045E00A68E7C6E630A00000100FFFFFF00FFFF07
:10046E000000FF0001000100FF000000FFFFFF0081
:06047E00FFFF0100000079
:00000001FF
