:100000000C9434000C9451000C9451000C94510049
:100010000C9451000C9451000C9451000C9451001C
:100020000C9451000C9451000C9451000C946B01F1
:100030000C9451000C9451000C9451000C945100FC
:100040000C9451000C9451000C9451000C945100EC
:100050000C9451000C9451000C9451000C945100DC
:100060000C9451000C94510011241FBECFEFD8E026
:10007000DEBFCDBF11E0A0E0B1E0E2E6F4E002C0F7
:1000800005900D92AE30B107D9F721E0AEE0B1E0B6
:1000900001C01D92AB31B207E1F70E9496010C94AA
:1000A0002F020C94000040910E01E42FF0E0E05F7D
:1000B000FE4F808380E020E09FEF883050F4E82FEF
:1000C000F0E0E05FFE4F308193233081232B8F5F80
:1000D000F4CF809118018095892380931A01809133
:1000E0001801322F309583238093190180911801D4
:1000F0002823922B9093180181E0840F80930E01A6
:10010000883010F010920E01089594EA9093BC008C
:100110009091BC009923E4F78093BB0084E880931E
:10012000BC008091BC008823E4F76093BB0084E8A6
:100130008093BC008091BC008823E4F784E980931D
:10014000BC000895CF93DF93C82FD82FD07F6D2F99
:100150006D608EE40E9485006D2F69608EE40E94C0
:10016000850080E1C89FE00111246C2F6D608EE452
:100170000E9485006C2F69608EE40E948500DF91EB
:10018000CF910895CF93DF93C82FD82FD07F6D2FB5
:100190006C608EE40E9485006D2F68608EE40E9482
:1001A000850080E1C89FE00111246C2F6C608EE413
:1001B0000E9485006C2F68608EE40E948500DF91AC
:1001C000CF9108950F931F93CF93DF93C82F8A0188
:1001D000D22F662319F081E00E94C2008FE39FE1D5
:1001E0000197F1F700C000008C2F80680E94C200C8
:1001F000C0E08D2F90E001972C2F30E028173907B1
:1002000044F4F801EC0FF11D80810E94A200CF5F41
:10021000F0CFDF91CF911F910F910895CF93DF938E
:1002200000D000D0CDB7DEB780E290E29A83898318
:1002300080E290E09C838B8324E0AE014F5F5F4FB0
:1002400060E086E40E94E2000F900F900F900F9004
:10025000DF91CF910895CF93DF9300D0CDB7DEB774
:1002600080910F01882319F08130D1F02FC0809147
:10027000190180FF10C081E490E09A83898322E015
:10028000AE014F5F5F4F60E086E40E94E20081E0D4
:1002900080930F011BC00E940E0110920F0116C027
:1002A0008091190181FF10C082E490E09A838983D4
:1002B00022E0AE014F5F5F4F60E087E40E94E20002
:1002C00081E080930F0102C010920F010F900F90F8
:1002D000DF91CF9108951F920F920FB60F921124C4
:1002E0002F933F934F935F936F937F938F939F933E
:1002F000AF93BF93EF93FF9383B187700E94530036
:100300008091190181110E942B01FF91EF91BF9102
:10031000AF919F918F917F916F915F914F913F919D
:100320002F910F900FBE0F901F901895CF93DF93D2
:10033000CDB7DEB72D970FB6F894DEBF0FBECDBF99
:1003400014B88FE087B982E18093B80081E0809390
:10035000B90084E08093BC006CE38EE40E948500C9
:1003600068E38EE40E9485008FE59AEE0197F1F72D
:1003700000C000006CE38EE40E94850068E38EE418
:100380000E9485008FE090E40197F1F700C0000023
:100390006CE38EE40E94850068E38EE40E94850091
:1003A0008FE090E40197F1F700C000006CE28EE46A
:1003B0000E94850068E28EE40E9485006CE28EE473
:1003C0000E94850068E28EE40E9485006CE88EE45D
:1003D0000E94850068E88EE40E94850081E00E940A
:1003E000C2008FE39FE10197F1F700C000008CE0AD
:1003F0000E94C20086E00E94C20087E0E0E0F1E0D7
:10040000DE01119601900D928A95E1F727E0AE0189
:100410004F5F5F4F61E080E00E94E20086E0E7E02E
:10042000F1E0DE01189601900D928A95E1F726E041
:10043000AE01485F5F4F60E080E40E94E2001092EE
:10044000800089E08093810082E080936F008FE7D5
:100450009EE390938900809388007894FFCFF8946E
:02046000FFCFCC
:0E046200554E4C4F434B00434F44453A00006B
:00000001FF
