:100000000C9434000C9451000C9451000C94510049
:100010000C9451000C9451000C9451000C9451001C
:100020000C9451000C9451000C9451000C94B000AD
:100030000C9451000C9451000C9451000C945100FC
:100040000C9451000C9451000C9451000C945100EC
:100050000C9451000C9451000C9451000C945100DC
:100060000C9451000C94510011241FBECFEFD8E026
:10007000DEBFCDBF11E0A0E0B1E0EEE8F2E002C0EB
:1000800005900D92A030B107D9F721E0A0E0B1E0D2
:1000900001C01D92A030B207E1F70E94BA000C9493
:1000A00045010C94000094EA9093BC009091BC0030
:1000B0009923E4F78093BB0084E88093BC0080918F
:1000C000BC008823E4F76093BB0084E88093BC0005
:1000D0008091BC008823E4F784E98093BC000895F4
:1000E000CF93DF93C82FD82FD07F6D2F6D608EE414
:1000F0000E9453006D2F69608EE40E94530080E1DE
:10010000C89FE00111246C2F6D608EE40E945300A3
:100110006C2F69608EE40E945300DF91CF910895A7
:10012000CF93DF93C82FD82FD07F6D2F6C608EE4D4
:100130000E9453006D2F68608EE40E94530080E19E
:10014000C89FE00111246C2F6C608EE40E94530064
:100150006C2F68608EE40E945300DF91CF91089568
:100160001F920F920FB60F9211240F900FBE0F9097
:100170001F90189514B88FE087B982E18093B8007A
:1001800081E08093B90084E08093BC006CE38EE44E
:100190000E94530068E38EE40E9453008FE59AEEBC
:1001A0000197F1F700C000006CE38EE40E94530059
:1001B00068E38EE40E9453008FE090E40197F1F72A
:1001C00000C000006CE38EE40E94530068E38EE4FC
:1001D0000E9453008FE090E40197F1F700C0000007
:1001E0006CE28EE40E94530068E28EE40E945300A9
:1001F0006CE28EE40E94530068E28EE40E94530099
:100200006CE88EE40E94530068E88EE40E9453007C
:1002100081E00E9490008FE39FE10197F1F700C019
:1002200000008CE00E94900086E00E94900080E830
:100230000E94900085E50E9470008EE40E9470008C
:100240008CE40E9470008FE40E94700083E40E949E
:1002500070008BE40E94700080EC0E94900083E4A8
:100260000E9470008FE40E94700084E40E9470007D
:1002700085E40E9470008AE30E9470001092800062
:0E02800088E0809381007894FFCFF894FFCF40
:00000001FF
