S00D00004C61625F372E7372656372
S11300000C943C000C9459000C9459000C94590025
S11300100C9459000C9459000C9459000C945900F8
S11300200C9459000C9459000C9459000C948502BA
S11300300C9459000C9459000C9459000C945900D8
S11300400C9459000C9459000C9459000C945900C8
S11300500C9459000C9459000C9459000C945900B8
S11300600C9459000C9459008D01A601BF01DA01CA
S11300701D0237025302030211241FBECFEFD8E042
S1130080DEBFCDBF11E0A0E0B1E0E2EAF6E002C0DD
S113009005900D92A431B107D9F721E0A4E1B1E0B4
S11300A001C01D92A332B207E1F70E94B0020C9482
S11300B04F030C94000040911401E42FF0E0E85E3B
S11300C0FE4F808380E020E09FEF883050F4E82FDB
S11300D0F0E0E85EFE4F308193233081232B8F5F65
S11300E0F4CF80912001809589238093220180910F
S11300F02001322F309583238093210180912001A8
S11301002823922B9093200181E0840F8093140183
S1130110883010F010921401089594EA9093BC0072
S11301209091BC009923E4F78093BB0084E880930A
S1130130BC008091BC008823E4F76093BB0084E892
S11301408093BC008091BC008823E4F784E9809309
S1130150BC000895CF93DF93C82FD82FD07F6D2F85
S11301606D608EE40E948D006D2F69608EE40E94A4
S11301708D0080E1C89FE00111246C2F6D608EE436
S11301800E948D006C2F69608EE40E948D00DF91C7
S1130190CF910895CF93DF93C82FD82FD07F6D2FA1
S11301A06C608EE40E948D006D2F68608EE40E9466
S11301B08D0080E1C89FE00111246C2F6C608EE4F7
S11301C00E948D006C2F68608EE40E948D00DF9188
S11301D0CF91089580911701813099F01CF4882300
S11301E031F02CC08230B9F08330F9F027C083E0BD
S11301F088B99091170180911601890F8093170196
S11302001DC086E088B99091170180911601890F6D
S11302108093170113C08CE088B9909117018091E5
S11302201601890F8093170109C089E088B990915C
S1130230170180911601890F80931701809117018E
S113024084301CF010921701089588231CF483E075
S11302508093170108950F931F93CF93DF93C82FB3
S11302608A01D22F662319F081E00E94CA008FE32D
S11302709FE10197F1F700C000008C2F80680E9475
S1130280CA00C0E08D2F90E001972C2F30E0281792
S1130290390744F4F801EC0FF11D80810E94AA0093
S11302A0CF5FF0CFDF91CF911F910F910895CF933E
S11302B0DF9300D000D0CDB7DEB780E290E29A831E
S11302C0898380E290E09C838B8324E0AE014F5FBE
S11302D05F4F60E086E40E942B010F900F900F9017
S11302E00F90DF91CF9108950F931F93CF93DF93D6
S11302F0CDB7DEB727970FB6F894DEBF0FBECDBFDC
S1130300E09115018E2F90E08830910508F0F2C03D
S1130310FC01EC5CFF4F0C9449030E94570180914F
S1130320210180FF10C081E490E09A83898322E058
S1130330AE014F5F5F4F60E086E40E942B0181E0D5
S113034080931501D7C010921501D4C0809121016A
S113035081FF10C082E490E09A83898322E0AE0199
S11303604F5F5F4F60E087E40E942B0182E080933F
S11303701501C0C00E94570110921501BBC08091A5
S1130380210182FF12C083E490E09A83898322E0F2
S1130390AE014F5F5F4F60E088E40E942B0183E071
S11303A0809315010E947401A5C00E945701109208
S11303B01501A0C087E0E0E0F1E0DE0111960190B4
S11303C00D928A95E1F727E0AE014F5F5F4F60E041
S11303D080E00E942B0181E08093160100E010E090
S11303E0011584E0180758F48FE39CE90197F1F7AD
S11303F000C000000E94EA000F5F1F4FF1CF87E0AA
S11304008093150177C00E9457018091210182FFDA
S113041010C083E490E09A83898322E0AE014F5FA9
S11304205F4F60E086E40E942B0184E08093150115
S113043061C087E0809315015DC08091210181FF37
S113044010C082E490E09A83898322E0AE014F5F7A
S11304505F4F60E087E40E942B0185E080931501E3
S113046049C00E94570187E08093150143C08091E1
S1130470210180FF12C081E490E09A83898322E005
S1130480AE014F5F5F4F60E088E40E942B0186E07D
S1130490809315010E9474012DC00E94570187E0CA
S11304A08093150127C087E0E7E0F1E0DE011196B3
S11304B001900D928A95E1F727E0AE014F5F5F4FFF
S11304C060E080E00E942B018FEF8093160100E032
S11304D010E0011594E0190758F48FE39CE90197A3
S11304E0F1F700C000000E94EA000F5F1F4FF1CF38
S11304F01092150127960FB6F894DEBF0FBECDBF3C
S1130500DF91CF911F910F9108951F920F920FB613
S11305100F9211242F933F934F935F936F937F9385
S11305208F939F93AF93BF93EF93FF9383B18770A0
S11305300E945B008091210181110E947401FF914E
S1130540EF91BF91AF919F918F917F916F915F9147
S11305504F913F912F910F900FBE0F901F901895C0
S1130560CF93DF93CDB7DEB72D970FB6F894DEBFE8
S11305700FBECDBF14B88FE087B982E18093B80075
S113058081E08093B90084E08093BC006CE38EE446
S11305900E948D0068E38EE40E948D008FE59AEE40
S11305A00197F1F700C000006CE38EE40E948D0017
S11305B068E38EE40E948D008FE090E40197F1F7E8
S11305C000C000006CE38EE40E948D0068E38EE4BA
S11305D00E948D008FE090E40197F1F700C00000C5
S11305E06CE28EE40E948D0068E28EE40E948D002D
S11305F06CE28EE40E948D0068E28EE40E948D001D
S11306006CE88EE40E948D0068E88EE40E948D0000
S113061081E00E94CA008FE39FE10197F1F700C0D7
S113062000008CE00E94CA0086E00E94CA0087E0B5
S1130630E7E0F1E0DE01119601900D928A95E1F771
S113064027E0AE014F5F5F4F61E080E00E942B0125
S113065086E0EEE0F1E0DE01189601900D928A95B5
S1130660E1F726E0AE01485F5F4F60E080E40E945E
S11306702B011092800089E08093810082E08093B6
S11306806F008FE79EE390938900809388007894AD
S1130690FFCFEE0FFF1F0590F491E02D0994F8941D
S10506A0FFCF86
S11306A24C4F434B202000554E4C4F434B00434F7D
S10706B244453A007D
S9030000FC
