S00C00004C6162332E73726563D6
S11300000C9444000C949E000C9461000C94AF007A
S11300100C9461000C9461000C9461000C946100D8
S11300200C9461000C9461000C9461000C94BB006E
S11300300C9461000C9461000C9461000C946100B8
S11300400C9461000C9461000C9461000C946100A8
S11300500C9461000C9461000C9461000C94610098
S11300600C9461000C9461006C006F0072007500C8
S113007078007B007E008100840087008A008D0068
S1130080900093009600990011241FBECFEFD8E092
S1130090DEBFCDBF11E0A0E0B1E0ECE4F2E002C0CD
S11300A005900D92A230B107D9F721E0A2E0B1E0AA
S11300B001C01D92A330B207E1F70E9400010C9425
S11300C024010C94000090E080319105A8F5FC0116
S11300D0EC5CFF4F0C941E018AEF8BB9089580E607
S11300E08BB9089589ED8BB9089581EF8BB9089583
S11300F083E68BB9089583EB8BB908958BEB8BB9A9
S1130100089580EE8BB908958BEF8BB9089583EE33
S11301108BB908958BEE8BB908958BE38BB9089551
S11301208AE98BB9089589E78BB908958BE98BB96E
S113013008958BE88BB908951BB808951F920F9208
S11301400FB60F9211248F93809102018F5F8093D9
S113015002018F910F900FBE0F901F9018951F9260
S11301600F920FB60F921124109202010F900FBE3E
S11301700F901F9018951F920F920FB60F92112493
S11301802F933F934F935F936F937F938F939F939B
S1130190AF93BF93EF93FF9380910001882381F085
S11301A08091020182958F700E94630095B182E074
S11301B0892785B985B18B7F85B9109200010FC05D
S11301C0809102018F700E94630095B184E08927B9
S11301D085B985B18D7F85B981E080930001FF9158
S11301E0EF91BF91AF919F918F917F916F915F91AB
S11301F04F913F912F910F900FBE0F901F90189524
S113020086E084B98BEF8AB982E085B991E09DBB21
S1130210809369009093680090E290936B00109231
S113022080009CE09093810080936F0081E19AE7C5
S113023090938900809388007894FFCFEE0FFF1F7E
S10F02400590F491E02D0994F894FFCF90
S105024C0100AB
S9030000FC
