:100000000C943E000C9448000C9448000C9448005A
:100010000C9448000C9448000C9448000C94480040
:100020000C9448000C9448000C9448000C94480030
:100030000C9448000C9448000C9448000C94480020
:100040000C9448000C9448000C9448000C94480010
:100050000C9448000C94C6000C9448000C94480082
:100060000C9448000C944800B000C400B200B400E6
:10007000B600B800BA00BC00BE00C00011241FBE0C
:10008000CFEFD8E0DEBFCDBF0E94BA010C943F0293
:100090000C94000094EA9093BC009091BC009923CA
:1000A000E4F78093BB0084E88093BC008091BC009F
:1000B0008823E4F76093BB0084E88093BC008091C0
:1000C000BC008823E4F784E98093BC000895CF93B3
:1000D000DF93C82FD82FD07F6D2F6D608EE40E94E4
:1000E0004A006D2F69608EE40E944A0080E1C89F3B
:1000F000E00111246C2F6D608EE40E944A006C2F89
:1001000069608EE40E944A00DF91CF910895CF93F9
:10011000DF93C82FD82FD07F6D2F6C608EE40E94A4
:100120004A006D2F68608EE40E944A0080E1C89FFB
:10013000E00111246C2F6C608EE40E944A006C2F49
:1001400068608EE40E944A00DF91CF91089590E0AC
:100150008A309105B8F4FC01EC5CFF4F0C942A0244
:1001600080E3089582E3089583E3089584E3089586
:1001700085E3089586E3089587E3089588E3089565
:1001800089E3089585E4089581E308951F920F920D
:100190000FB60F9211240F931F932F933F934F93FA
:1001A0005F936F937F938F939F93AF93BF93CF93FF
:1001B000DF93EF93FF9380917800C0917900D0E0B6
:1001C000DC2FCC27C82B84E80E94870080E20E94A5
:1001D000670080E20E94670080E20E94670080E280
:1001E0000E94670084E80E9487009E01369527954B
:1001F0003695279536952795A5ECB0E20E943002FA
:10020000AC01529542954F7045275F7045279A0182
:10021000ADECBCEC0E94300296958795969587953B
:10022000969587959C01220F331F880F991F880F81
:10023000991F880F991F820F931F242F281B822F2D
:100240000E94A7000E9467009E013695279536956B
:100250002795ABE7B4E10E943002AC015695479573
:100260009A01ADECBCEC0E9430029695879596956C
:100270008795969587959C01220F331F880F991FAC
:10028000880F991F880F991F820F931F242F281BF7
:10029000822F0E94A7000E9467009E01ADECBCEC7B
:1002A0000E9430028C0116950795169507951695B4
:1002B000079598010E9430029695879596958795A7
:1002C000969587959C01220F331F880F991F880FE1
:1002D000991F880F991F820F931F202F281B822F91
:1002E0000E94A7000E946700C801880F991F000F95
:1002F000111F000F111F000F111F080F191F8C2F46
:10030000801B0E94A7000E9467008FE39FE1019776
:10031000F1F700C00000C53C93E0D90718F087E072
:100320008BB90EC0CB3A22E0D20718F086E08BB929
:1003300007C0C735D14018F084E08BB901C01BB8A5
:10034000EAE7F0E0808180648083FF91EF91DF91A4
:10035000CF91BF91AF919F918F917F916F915F915D
:100360004F913F912F911F910F910F900FBE0F90C2
:100370001F90189587E08AB982E18093B80081E0E8
:100380008093B90084E08093BC006CE38EE40E940B
:100390004A0068E38EE40E944A008FE59AEE0197D6
:1003A000F1F700C000006CE38EE40E944A0068E3AD
:1003B0008EE40E944A008FE090E40197F1F700C0BC
:1003C00000006CE38EE40E944A0068E38EE40E9421
:1003D0004A008FE090E40197F1F700C000006CE262
:1003E0008EE40E944A0068E28EE40E944A006CE2B9
:1003F0008EE40E944A0068E28EE40E944A006CE8A3
:100400008EE40E944A0068E88EE40E944A0081E07F
:100410000E9487008FE39FE10197F1F700C0000081
:100420008CE00E94870086E00E94870080E80E949E
:10043000870086E50E94670084E40E9467008AE3E3
:100440000E94670080E480937C008FEC80937A00A8
:100450007894FFCFEE0FFF1F0590F491E02D0994E3
:10046000A29FB001B39FC001A39F700D811D1124F5
:10047000911DB29F700D811D1124911D0895F89456
:02048000FFCFAC
:00000001FF
