:100000000C9440000C940F040C94B2030C945D000B
:100010000C945D000C945D000C945D000C945D00EC
:100020000C945D000C945D000C945D000C948503B1
:100030000C945D000C945D000C945D000C945D00CC
:100040000C945D000C945D000C94D4030C945D0042
:100050000C94C5030C9421040C945D000C945D0079
:100060000C945D000C945D008D01AC01D201F8018F
:100070000C0275029D02BD02E702110331033B032E
:1000800011241FBECFEFD8E0DEBFCDBF11E0A0E04E
:10009000B1E0E8E5FBE002C005900D92A036B107A3
:1000A000D9F721E0A0E6B1E001C01D92A837B20760
:1000B000E1F70E94E4040C94AA050C94000040911E
:1000C0006001E42FF0E0E359FE4F808380E020E000
:1000D0009FEF883050F4E82FF0E0E359FE4F308175
:1000E00093233081232B8F5FF4CF8091750180950E
:1000F00089238093770180917501322F3095832376
:1001000080937601809175012823922B909375013D
:1001100081E0840F80936001883010F010926001BC
:1001200080917601089594EA9093BC009091BC0070
:100130009923E4F78093BB0084E88093BC0080910E
:10014000BC008823E4F76093BB0084E88093BC0084
:100150008091BC008823E4F784E98093BC00089573
:10016000CF93DF93C82FD82FD07F6D2F6D608EE493
:100170000E9493006D2F69608EE40E94930080E1DD
:10018000C89FE00111246C2F6D608EE40E949300E3
:100190006C2F69608EE40E949300DF91CF910895E7
:1001A000CF93DF93C82FD82FD07F6D2F6C608EE454
:1001B0000E9493006D2F68608EE40E94930080E19E
:1001C000C89FE00111246C2F6C608EE40E949300A4
:1001D0006C2F68608EE40E949300DF91CF910895A8
:1001E0000F931F93CF93C82F8A01662349F081E0B4
:1001F0000E94D0008FE39FE10197F1F700C000005B
:100200008C2F80680E94D000C0E0F801EC0FF11D37
:100210008081882321F00E94B000CF5FF6CFCF917C
:100220001F910F91089580916C018130B9F01CF4F9
:10023000882331F03CC08230F9F0833059F137C067
:100240008BB18F708BB98BB180638BB990916C013E
:1002500080916B01890F80936C0129C08BB18F70E5
:100260008BB98BB180668BB990916C0180916B01D9
:10027000890F80936C011BC08BB18F708BB98BB1D0
:10028000806C8BB990916C0180916B01890F809388
:100290006C010DC08BB18F708BB98BB180698BB93C
:1002A00090916C0180916B01890F80936C0180911A
:1002B0006C0184301CF010926C01089588231CF4AA
:1002C00083E080936C0108950F931F93CF93DF9386
:1002D00000D01F92CDB7DEB7E091650191E020918B
:1002E00064012E1301C090E090936301909162012C
:1002F000992329F091E09093630110926201E093B9
:1003000064014E2F50E04C30510508F0DAC1182F2F
:10031000FA01EC5CFF4F0C949505809163018823F2
:1003200061F041E051E061E080E00E94F0004BE0CC
:1003300051E060E080E40E94F00010FF0AC04BE151
:1003400051E060E086E40E94F00081E08093650166
:10035000B8C110926501B5C180916301882361F035
:1003600041E051E061E080E00E94F00045E151E0B1
:1003700060E080E40E94F00011FF0AC044E251E016
:1003800060E087E40E94F00082E08093650199C1FB
:10039000812F857019F01092650193C181E08093DF
:1003A00065018FC180916301882361F041E051E0D4
:1003B00061E080E00E94F0004DE151E060E080E407
:1003C0000E94F00012FF0AC04AE351E060E088E4B6
:1003D0000E94F00083E08093650173C1812F8370D8
:1003E00019F0109265016DC182E08093650169C1C9
:1003F00080916301882361F041E051E061E080E099
:100400000E94F00046E251E060E080E40E94F000CB
:1004100084E08093650155C180916301882361F078
:1004200041E051E061E080E00E94F00046E251E0EE
:1004300060E080E40E94F000809167019091680183
:10044000883E23E09207E8F1409100018DEC489F3F
:10045000212D1124922F969596959695990F392FC7
:10046000330F330F930F491B942F40936A01269546
:1004700026952695289F812D11248695869586950B
:10048000880F382F330F330F830F281B822F2093B1
:10049000690119821A821B828063898390639A831F
:1004A000AE014F5F5F4F60E08EE40E94F00010925B
:1004B000680110926701809100018F5F80930001B5
:1004C00005C00196909368018093670180910001B7
:1004D0008B3008F4F6C0109200011092680110925F
:1004E000670185E080936501ECC041E551E06091D2
:1004F000630180E00E94F00081E080936B0100E0E6
:1005000010E0011582E0180758F48FE39CE9019789
:10051000F1F700C000000E9413010F5F1F4FF1CFE1
:100520008BB18F708BB985B1806185B985B18F7DB5
:1005300085B986E080936501C4C0809163018823FA
:1005400061F045E051E061E080E00E94F0004BE0A6
:1005500051E060E080E40E94F00012FF0AC04AE32C
:1005600051E060E086E40E94F00087E0809365013E
:10057000A8C086E080936501A4C0809163018823B0
:1005800061F045E051E061E080E00E94F00044E36A
:1005900051E060E080E40E94F0008091760181FFEC
:1005A0000AC044E251E060E087E40E94F00088E085
:1005B0008093650186C080917601857021F08AE084
:1005C000809365017EC087E0809365017AC0809149
:1005D0006301882361F045E051E061E080E00E9422
:1005E000F0004CE351E060E080E40E94F000809174
:1005F000760180FF0AC04BE151E060E088E40E9490
:10060000F00089E0809365015CC08091760186707E
:1006100021F08AE08093650154C088E080936501F1
:1006200050C080916301882361F045E051E061E0B2
:1006300080E00E94F00045E451E060E080E40E9428
:10064000F00010926601109268011092670185B166
:10065000877F85B985B1806185B98BE0809365011D
:1006600030C085B1886085B981E08093660186E0FD
:100670008093650126C04FE451E06091630180E002
:100680000E94F0008FEF80936B0100E010E00115F5
:1006900092E0190758F48FE39CE90197F1F700C045
:1006A00000000E9413010F5F1F4FF1CF8BB18F70BD
:1006B0008BB985B18F7E85B985B1806285B910927D
:1006C0006501809166018823C1F080916701909156
:1006D00068018A3F910540F095B180E1892785B98D
:1006E00010926801109267018091670190916801F2
:1006F000019690936801809367010F900F900F907F
:10070000DF91CF911F910F9108951F920F920FB615
:100710000F9211242F933F934F935F936F937F9387
:100720008F939F93AF93BF93EF93FF9383B18770A2
:100730000E945F000E946401EAE7F0E0808180642B
:100740008083FF91EF91BF91AF919F918F917F91A6
:100750006F915F914F913F912F910F900FBE0F902E
:100760001F9018951F920F920FB60F9211248F931E
:100770008091C00085FF03C080EF8093C6008F91F9
:100780000F900FBE0F901F9018951F920F920FB6EB
:100790000F9211248F9380E98093C1008F910F9065
:1007A0000FBE0F901F9018951F920F920FB60F92C9
:1007B00011242F933F934F935F936F937F938F9366
:1007C0009F93AF93BF93EF93FF938091C6008F30B9
:1007D000A9F488E48093C1004CE551E061E080E039
:1007E0000E94F0002FEF87EA91E621508040904070
:1007F000E1F700C0000081E080936201FF91EF917A
:10080000BF91AF919F918F917F916F915F914F9128
:100810003F912F910F900FBE0F901F9018951F9230
:100820000F920FB60F9211248F939F9398B182E08D
:10083000892788B99F918F910F900FBE0F901F90BD
:1008400018951F920F920FB60F921124EF92FF92FC
:100850000F931F932F933F934F935F936F937F93C8
:100860008F939F93AF93BF93EF93FF93CF93DF93B8
:10087000CDB7DEB72597DEBFCDBF4091790024EC20
:10088000429FA00111249A01329522952F702327AF
:100890003F702327A7E4B3E00E949B058C011695C7
:1008A000079516950795169507959A0136952795FC
:1008B0003695279536952795A5ECB0E20E949B05C5
:1008C0007C01F694E794F694E794F694E794F69412
:1008D000E7949701ADECBCEC0E949B05FC01F695FA
:1008E000E795F695E795F695E795CF01880F991F5F
:1008F000EE0FFF1FEE0FFF1FEE0FFF1FE80FF91F98
:10090000C7018E1B9F0BFC019A01369527953695E2
:100910002795ABE7B4E10E949B05AC01569547953E
:100920009A01ADECBCEC0E949B0596958795969537
:100930008795969587959C01220F331F880F991FE5
:10094000880F991F880F991F820F931FDA01A81B28
:10095000B90BCD01209161012436B8F0AE014F5F93
:100960005F4F95E0DA011D929A95E9F79EE29A832E
:1009700000630983E063EB8380638C8360E08CE039
:100980000E94F0001092610103C02F5F209361016B
:100990000F900F900F900F900F90DF91CF91FF91DC
:1009A000EF91BF91AF919F918F917F916F915F91E7
:1009B0004F913F912F911F910F91FF90EF900F90CA
:1009C0000FBE0F901F90189580EF8AB988E384B905
:1009D00082E18093B800C1E0C093B90084E08093C5
:1009E000BC006CE38EE40E94930068E38EE40E94F6
:1009F00093008FE59AEE0197F1F700C000006CE3D9
:100A00008EE40E94930068E38EE40E9493008FE0DE
:100A100090E40197F1F700C000006CE38EE40E94BF
:100A2000930068E38EE40E9493008FE090E40197C6
:100A3000F1F700C000006CE28EE40E94930068E2CF
:100A40008EE40E9493006CE28EE40E94930068E2C0
:100A50008EE40E9493006CE88EE40E94930068E8A4
:100A60008EE40E94930081E00E94D0008FE39FE11A
:100A70000197F1F700C000008CE00E94D00086E0F2
:100A80000E94D00041E051E061E080E00E94F0006F
:100A90004BE051E060E080E40E94F00085B18062AC
:100AA00085B91092800089E08093810082E0809374
:100AB0006F008FE79EE3909389008093880087B151
:100AC000826087B987B18E7F87B98AB18B7F8AB9F7
:100AD00080E680937C008FEC80937A008DB38160F8
:100AE0008DBBE9E6F0E080818260808380818E7F2B
:100AF00080838AB1877F8AB9A0ECB0E0CC9388E488
:100B00008093C10086E08C9387E090E09093C500CD
:100B10008093C4008DB382608DBB808188608083A8
:100B200080818B7F80837894FFCFEE0FFF1F05902D
:100B3000F491E02D0994A29FB001B39FC001A39F3F
:100B4000700D811D1124911DB29F700D811D112406
:080B5000911D0895F894FFCFF8
:100B5800014449535341524D454400434F44453A9B
:100B68002020202000434F44453A204100434F4471
:100B7800453A20414200434F44453A2041424320F0
:100B880043643A00434F44453A204300434F4445A9
:100B98003A20434200434F44453A204342410055DE
:100BA8004E4C4F434B494E472E2E2E004F4B0000C4
:00000001FF
