S01B00004543453438345F46696E616C50726F6A6563742E737265637C
S11300000C9440000C945D000C94AD030C945D00C2
S11300100C945D000C945D000C945D000C945D00E8
S11300200C945D000C945D000C945D000C948503AD
S11300300C945D000C945D000C945D000C945D00C8
S11300400C945D000C945D000C94CF030C945D0043
S11300500C94C0030C945D000C945D000C945D0042
S11300600C945D000C945D008D01AC01D201F8018B
S11300700C0275029D02BD02E702110331033B032A
S113008011241FBECFEFD8E0DEBFCDBF11E0A0E04A
S1130090B1E0E6E5F9E002C005900D92A036B107A3
S11300A0D9F721E0A0E6B1E001C01D92A737B2075D
S11300B0E1F70E940A040C94A9040C9400004091F6
S11300C06001E42FF0E0E459FE4F808380E020E0FB
S11300D09FEF883050F4E82FF0E0E459FE4F308170
S11300E093233081232B8F5FF4CF8091740180950B
S11300F089238093760180917401322F3095832374
S113010080937501809174012823922B909374013C
S113011081E0840F80936001883010F010926001B8
S113012080917501089594EA9093BC009091BC006D
S11301309923E4F78093BB0084E88093BC0080910A
S1130140BC008823E4F76093BB0084E88093BC0080
S11301508091BC008823E4F784E98093BC0008956F
S1130160CF93DF93C82FD82FD07F6D2F6D608EE48F
S11301700E9493006D2F69608EE40E94930080E1D9
S1130180C89FE00111246C2F6D608EE40E949300DF
S11301906C2F69608EE40E949300DF91CF910895E3
S11301A0CF93DF93C82FD82FD07F6D2F6C608EE450
S11301B00E9493006D2F68608EE40E94930080E19A
S11301C0C89FE00111246C2F6C608EE40E949300A0
S11301D06C2F68608EE40E949300DF91CF910895A4
S11301E00F931F93CF93C82F8A01662319F081E0E0
S11301F00E94D0008FE39FE10197F1F700C0000057
S11302008C2F80680E94D000C0E0F801EC0FF11D33
S11302108081882321F00E94B000CF5FF6CFCF9178
S11302201F910F91089580916B018130B9F01CF4F6
S1130230882331F03CC08230F9F0833059F137C063
S11302408BB18F708BB98BB180638BB990916B013B
S113025080916A01890F80936B0129C08BB18F70E3
S11302608BB98BB180668BB990916B0180916A01D7
S1130270890F80936B011BC08BB18F708BB98BB1CD
S1130280806C8BB990916B0180916A01890F809386
S11302906B010DC08BB18F708BB98BB180698BB939
S11302A090916B0180916A01890F80936B01809119
S11302B06B0184301CF010926B01089588231CF4A8
S11302C083E080936B0108950F931F93CF93DF9383
S11302D000D01F92CDB7DEB7E091640191E0209188
S11302E063012E1301C090E090936201909161012B
S11302F0992329F091E09093620110926101E093B7
S113030063014E2F50E04C30510508F0DAC1182F2C
S1130310FA01EC5CFF4F0C94A304809162018823E2
S113032061F041E051E061E080E00E94F0004BE0C8
S113033051E060E080E40E94F00010FF0AC04BE14D
S113034051E060E086E40E94F00081E08093640163
S1130350B8C110926401B5C180916201882361F033
S113036041E051E061E080E00E94F00045E151E0AD
S113037060E080E40E94F00011FF0AC044E251E012
S113038060E087E40E94F00082E08093640199C1F8
S1130390812F857019F01092640193C181E08093DC
S11303A064018FC180916201882361F041E051E0D2
S11303B061E080E00E94F0004DE151E060E080E403
S11303C00E94F00012FF0AC04AE351E060E088E4B2
S11303D00E94F00083E08093640173C1812F8370D5
S11303E019F0109264016DC182E08093640169C1C7
S11303F080916201882361F041E051E061E080E096
S11304000E94F00046E251E060E080E40E94F000C7
S113041084E08093640155C180916201882361F076
S113042041E051E061E080E00E94F00046E251E0EA
S113043060E080E40E94F000809166019091670181
S1130440883E23E09207E8F1409100018DEC489F3B
S1130450212D1124922F969596959695990F392FC3
S1130460330F330F930F491B942F40936901269543
S113047026952695289F812D112486958695869507
S1130480880F382F330F330F830F281B822F2093AD
S1130490680119821A821B828063898390639A831C
S11304A0AE014F5F5F4F60E08EE40E94F000109257
S11304B0670110926601809100018F5F80930001B3
S11304C005C00196909367018093660180910001B5
S11304D08B3008F4F6C0109200011092670110925C
S11304E0660185E080936401ECC041E551E06091D0
S11304F0620180E00E94F00081E080936A0100E0E4
S113050010E0011582E0180758F48FE39CE9019785
S1130510F1F700C000000E9413010F5F1F4FF1CFDD
S11305208BB18F708BB985B1806185B985B18F7DB1
S113053085B986E080936401C4C0809162018823F8
S113054061F045E051E061E080E00E94F0004BE0A2
S113055051E060E080E40E94F00012FF0AC04AE328
S113056051E060E086E40E94F00087E0809364013B
S1130570A8C086E080936401A4C0809162018823AE
S113058061F045E051E061E080E00E94F00044E366
S113059051E060E080E40E94F0008091750181FFE9
S11305A00AC044E251E060E087E40E94F00088E081
S11305B08093640186C080917501857021F08AE082
S11305C0809364017EC087E0809364017AC0809147
S11305D06201882361F045E051E061E080E00E941F
S11305E0F0004CE351E060E080E40E94F000809170
S11305F0750180FF0AC04BE151E060E088E40E948D
S1130600F00089E0809364015CC08091750186707C
S113061021F08AE08093640154C088E080936401EF
S113062050C080916201882361F045E051E061E0AF
S113063080E00E94F00045E451E060E080E40E9424
S1130640F00010926501109267011092660185B165
S1130650877F85B985B1806185B98BE0809364011A
S113066030C085B1886085B981E08093650186E0FA
S11306708093640126C04FE451E06091620180E000
S11306800E94F0008FEF80936A0100E010E00115F2
S113069092E0190758F48FE39CE90197F1F700C041
S11306A000000E9413010F5F1F4FF1CF8BB18F70B9
S11306B08BB985B18F7E85B985B1806285B9109279
S11306C06401809165018823C1F080916601909155
S11306D067018A3F910540F095B180E1892785B98A
S11306E010926701109266018091660190916701F2
S11306F0019690936701809366010F900F900F907D
S1130700DF91CF911F910F9108951F920F920FB611
S11307100F9211242F933F934F935F936F937F9383
S11307208F939F93AF93BF93EF93FF9383B187709E
S11307300E945F000E946401FF91EF91BF91AF910D
S11307409F918F917F916F915F914F913F912F91E5
S11307500F900FBE0F901F9018951F920F920FB617
S11307600F9211248F938091C00085FF03C080EF06
S11307708093C6008F910F900FBE0F901F90189515
S11307801F920F920FB60F9211248F9380E98093DA
S1130790C1008F910F900FBE0F901F9018951F925C
S11307A00F920FB60F9211242F933F934F935F93A1
S11307B06F937F938F939F93AF93BF93EF93FF9325
S11307C08091C6008F30A9F488E48093C1004CE581
S11307D051E061E080E00E94F0002FEF87EA91E6AB
S11307E0215080409040E1F700C0000081E08093F8
S11307F06101FF91EF91BF91AF919F918F917F9193
S11308006F915F914F913F912F910F900FBE0F9079
S11308101F90189580EF8AB988E384B982E18093A8
S1130820B800C1E0C093B90084E08093BC006CE3DD
S11308308EE40E94930068E38EE40E9493008FE5A7
S11308409AEE0197F1F700C000006CE38EE40E9479
S1130850930068E38EE40E9493008FE090E4019794
S1130860F1F700C000006CE38EE40E94930068E39B
S11308708EE40E9493008FE090E40197F1F700C0AA
S113088000006CE28EE40E94930068E28EE40E9411
S113089093006CE28EE40E94930068E28EE40E946E
S11308A093006CE88EE40E94930068E88EE40E9452
S11308B0930081E00E94D0008FE39FE10197F1F75C
S11308C000C000008CE00E94D00086E00E94D000AE
S11308D041E051E061E080E00E94F0004BE051E033
S11308E060E080E40E94F00085B1806285B91092D6
S11308F0800089E08093810082E080936F008FE71D
S11309009EE390938900809388008AB1877F8AB997
S1130910E0ECF0E0C08388E48093C10086E080834B
S113092087E090E09093C5008093C4008DB382600B
S11309308DBBE9E6F0E080818860808380818B7FD5
S113094080837894FFCFEE0FFF1F0590F491E02D84
S10909500994F894FFCFA6
S1130956014449535341524D454400434F44453A9B
S11309662020202000434F44453A204100434F4471
S1130976453A20414200434F44453A2041424320F0
S113098643643A00434F44453A204300434F4445A9
S11309963A20434200434F44453A204342410055DE
S11309A64E4C4F434B494E472E2E2E004F4B0000C4
S9030000FC
