:100000000C943E000C945B000C945B000C945B0021
:100010000C945B000C945B000C945B000C945B00F4
:100020000C945B000C945B000C945B000C940B0133
:100030000C945B000C945B000C945B000C945B00D4
:100040000C945B000C945B000C945B000C945B00C4
:100050000C945B000C945B000C945B000C945B00B4
:100060000C945B000C945B00F5000901F700F900AB
:10007000FB00FD00FF0001010301050111241FBE6B
:10008000CFEFD8E0DEBFCDBF11E0A0E0B1E0EAE500
:10009000F5E002C005900D92AE32B107D9F721E02C
:1000A000AEE2B1E001C01D92A034B207E1F70E94B8
:1000B00007020C94AB020C94000040912E01E42F37
:1000C000F0E0E15DFE4F808380E020E09FEF88302C
:1000D00050F4E82FF0E0E15DFE4F30819323308152
:1000E000232B8F5FF4CF80913701809589238093F4
:1000F000390180913701322F309583238093380165
:10010000809137012823922B9093370181E0840F4F
:1001100080932E01883010F010922E01089594EAF9
:100120009093BC009091BC009923E4F78093BB00AE
:1001300084E88093BC008091BC008823E4F760933E
:10014000BB0084E88093BC008091BC008823E4F766
:1001500084E98093BC000895CF93DF93C82FD82FF4
:10016000D07F6D2F6D608EE40E948F006D2F6960CF
:100170008EE40E948F0080E1C89FE00111246C2F63
:100180006D608EE40E948F006C2F69608EE40E9487
:100190008F00DF91CF910895CF93DF93C82FD82F91
:1001A000D07F6D2F6C608EE40E948F006D2F686091
:1001B0008EE40E948F0080E1C89FE00111246C2F23
:1001C0006C608EE40E948F006C2F68608EE40E9449
:1001D0008F00DF91CF91089590E08A309105B8F4B7
:1001E000FC01EC5CFF4F0C94910280E3089582E3E4
:1001F000089583E3089584E3089585E3089586E3ED
:10020000089587E3089588E3089589E3089585E4D0
:10021000089581E308951F920F920FB60F92112453
:10022000FF920F931F932F933F934F935F936F937F
:100230007F938F939F93AF93BF93EF93FF93CF934E
:10024000DF93CDB7DEB72D97DEBFCDBF83B183700F
:100250000E945D0080913701837080933F01E0919F
:100260003E0180913F01E82BF0E0EE0FFF1FE35FBE
:10027000FE4F208131812F3F310549F480913C01AF
:1002800090913D0190933D0180933C010AC0809183
:100290003C0190913D01820F931F90933D0180930B
:1002A0003C0180913F01880F880F80933E0180912F
:1002B0003C0190913D01992324F410923D0110924C
:1002C0003C0180913C0190913D018A3F910534F0C1
:1002D00089EF90E090933D0180933C0180913C0137
:1002E00090913D0188BD80913A0190913B01893EFA
:1002F000934008F467C081E00E94CC008FE39FE147
:100300000197F1F700C0000080E80E94CC008DE06A
:10031000E0E0F1E0DE01119601900D928A95E1F79F
:1003200010E01C3058F4E1E0F0E0EC0FFD1FE10FAD
:10033000F11D80810E94AC001F5FF3CF20913C0132
:1003400030913D0144E6429FC001439F900D11242E
:1003500069EF70E00E947D02F62E89E2689F812D90
:1003600011241DEC82958F700E94EC000E94AC005D
:10037000F19E012D1124069506950695019F112DDC
:100380001124169516951695110F812F880F880F39
:10039000180F802F811B0E94EC000E94AC00000F00
:1003A000802F880F880F080F8F2D801B0E94EC0074
:1003B0000E94AC0085E20E94AC0010923B011092BA
:1003C0003A0109C080913A0190913B0101969093C6
:1003D0003B0180933A012D960FB6F894DEBF0FBE15
:1003E000CDBFDF91CF91FF91EF91BF91AF919F91E1
:1003F0008F917F916F915F914F913F912F911F91BD
:100400000F91FF900F900FBE0F901F90189580E2F4
:100410008AB914B880E387B982E18093B80081E09B
:100420008093B90084E08093BC006CE38EE40E946A
:100430008F0068E38EE40E948F008FE59AEE0197AB
:10044000F1F700C000006CE38EE40E948F0068E3C7
:100450008EE40E948F008FE090E40197F1F700C0D6
:1004600000006CE38EE40E948F0068E38EE40E943B
:100470008F008FE090E40197F1F700C000006CE27C
:100480008EE40E948F0068E28EE40E948F006CE28E
:100490008EE40E948F0068E28EE40E948F006CE878
:1004A0008EE40E948F0068E88EE40E948F0081E055
:1004B0000E94CC008FE39FE10197F1F700C000009C
:1004C0008CE00E94CC0086E00E94CC00109280005C
:1004D00089E0809381008FE990E090938900809378
:1004E000880082E080936F0083E284BD8BE085BD4D
:1004F00089EF87BD18BC7894FFCF97FB072E16F4C1
:10050000009407D077FD09D00E94970207FC05D020
:100510003EF4909581959F4F0895709561957F4F1A
:100520000895EE0FFF1F0590F491E02D0994AA1B8A
:10053000BB1B51E107C0AA1FBB1FA617B70710F0CE
:10054000A61BB70B881F991F5A95A9F78095909500
:0A055000BC01CD010895F894FFCF1F
:10055A0044555459204359434C453A200000000160
:10056A0000FFFFFF00FFFF0000FF0001000100FF86
:0E057A00000000FFFFFF00FFFF010000000077
:00000001FF
